:100000000C9449000C947D010C9466000C946600DD
:100010000C9466000C9466000C9466000C946600C8
:100020000C9466000C9466000C9466000C946600B8
:100030000C9466000C9466000C9466000C946600A8
:100040000C9466000C9466000C9466000C94660098
:100050000C9466000C9466000C9466000C94660088
:100060000C9466000C9466009006A8062C062C06DC
:100070002C062C062C068A062C062C062C062C0692
:100080002C06F106BA072C06AD062C06B1072C0685
:10009000A30611241FBECFEFD4E0DEBFCDBF12E018
:1000A000A0E0B1E0ECECF0E102C005900D92A832C6
:1000B000B107D9F722E0A8E2B2E001C01D92A9324F
:1000C000B207E1F70E94F3050C9464080C94000059
:1000D000CF93C82F80E00E947C0080E48C0F0E94A8
:1000E0007C00CF910C94A40087B18C6387B9429AAD
:1000F0008BE091E00C94F700439898E087FF02C0F2
:10010000459A01C04598439AEFECF7E03197F1F733
:1001100000C000004398EFECF7E03197F1F700C022
:100120000000880F915051F70895449A8FEC97E0A2
:100130000197F1F700C00000449808950E949500CF
:1001400042980895429A08950E9495000E949E0048
:100150002FEF80E792E0215080409040E1F700C00F
:1001600000000C94A2005B9A5C9890E0981721F034
:100170005B985B9A9F5FFACF5C9A08955B985C9856
:1001800090E0981721F05B985B9A9F5FFACF5C9A9A
:1001900008958AB188618AB980E40E94BE008FE028
:1001A00097E20197F1F700C0000080E20C94B300E1
:1001B0001092C5008CE08093C400E0ECF0E08081F8
:1001C0008D7F808388E18093C10086E08093C200A8
:1001D00008959091C00095FFFCCF8093C6000895CC
:1001E0008091C00087FFFCCF8091C60008950F93D7
:1001F0001F93CF938C01C0E0F801EC0FF11D8081BB
:10020000882321F00E94E900CF5FF6CFCF911F91A4
:100210000F910895CF93C82F64E60E94BD07805DBB
:100220000E94E9002AE08C2F622F0E94BD07C92F8F
:100230000E94BD0780E3890F0E94E90080E38C0FD4
:10024000CF910C94E9000F931F93CF93DF938C0110
:1002500060E177E20E94C90780E3860F0E94E9000F
:10026000C80168EE73E00E94C907CB01CAE0D0E084
:10027000BE010E94C907805D0E94E900C80164E6D2
:1002800070E00E94C907CB01BE010E94C907805DD2
:100290000E94E900C801BE010E94C907182FCB01C6
:1002A000BE010E94C907805D0E94E90080E3810FC2
:1002B000DF91CF911F910F910C94E9001F93CF9381
:1002C000DF93D0E3C0E310E30E94F0008D3021F013
:1002D0001C2FCD2FD82FF8CF1053D05384E6189F62
:1002E000D00D1124CC0FC0568C2F880F880F8C0F87
:1002F0008D0FDF91CF911F9108951F920F920FB62E
:100300000F9211248F9381E0809328028F910F9098
:100310000FBE0F901F9018958F929F92AF92BF9231
:10032000CF92DF92EF92FF920E941404C90197705E
:10033000FF90EF90DF90CF90BF90AF909F908F9005
:100340000895CF93C82F892F0E947C008C2F0E9484
:100350007C00CF910C949E00CF92DF92EF92FF929F
:100360000F931F93CF93DF93CDB7DEB72B970FB6C5
:10037000F894DEBF0FBECDBFC982DA82EB82FC8269
:100380000D831E832F83388749875A876B87811196
:100390000BC080E40E94BE008FE097E20197F1F766
:1003A00000C0000089810DC0282F30E0FE01E20F5F
:1003B000F31F8181FE01E20FF31F9081981788F4EB
:1003C000891B2B960FB6F894DEBF0FBECDBFDF9111
:1003D000CF911F910F91FF90EF90DF90CF900C94F1
:1003E000B300891790F4981B892F2B960FB6F894B9
:1003F000DEBF0FBECDBFDF91CF911F910F91FF9058
:10040000EF90DF90CF900C94BE002B960FB6F8942F
:10041000DEBF0FBECDBFDF91CF911F910F91FF9037
:10042000EF90DF90CF9008955F926F927F928F92BE
:100430009F92AF92BF92CF92DF92EF92FF920F9373
:100440001F93CF93DF93CDB7DEB72B970FB6F894FA
:10045000DEBF0FBECDBF582EC982DA82EB82FC828E
:100460000D831E832F83388749875A876B8786E0E1
:10047000A82EB12C812C912C66246394712C81E0E0
:10048000581679F0C980DA80EB80FC800D811E81DE
:100490002F81388549855A856B858AEF8A0D0E94A0
:1004A000AC01C3010A2C02C0880F991F0A94E2F71D
:1004B0000E94A1018FEC97E00197F1F700C00000C6
:1004C0000E948C01882A992A9FEFA91AB90A80E113
:1004D000A816B104A1F6C4012B960FB6F894DEBF9E
:1004E0000FBECDBFDF91CF911F910F91FF90EF9085
:1004F000DF90CF90BF90AF909F908F907F906F9044
:100500005F9008958F929F92AF92CF92DF92EF9279
:10051000FF920F931F93CF93DF93CDB7DEB72B9747
:100520000FB6F894DEBF0FBECDBFC982DA82EB8270
:10053000FC820D831E832F83388749875A876B87F8
:10054000DE01119620E030E0FD0161E070E0AB01DA
:10055000022E02C0440F551F0A94E2F74821592188
:10056000452B21F44C91411101C0AC922F5F3F4FBC
:1005700011962B30310559F72BE0DC0101900D92DB
:100580002A95E1F72B960FB6F894DEBF0FBECDBFCC
:10059000DF91CF911F910F91FF90EF90DF90CF905F
:1005A000AF909F908F9008952F923F924F925F92BD
:1005B0006F927F928F929F92AF92BF92CF92DF9273
:1005C000EF92FF920F931F93CF93DF93CDB7DEB7D8
:1005D00066970FB6F894DEBF0FBECDBF2C01CE01DB
:1005E00001961C018BE0F10111928A95E9F780E4F4
:1005F0000E94BE008FE097E20197F1F700C0000073
:10060000C980DA80EB80FC800D811E812F813885C6
:1006100049855A856B8581E00E9414023C010E9445
:10062000230182ED91E00E94F700B12C672881F14F
:1006300090E4B91669F181E00E94B300B394C980D7
:10064000DA80EB80FC800D811E812F813885498501
:100650005A856B8581E00E9414023C014C01AB2C51
:10066000C980DA80EB80FC800D811E812F81388566
:1006700049855A856B85CE010C960E9482028BE0DB
:10068000FE013C96D10101900D928A95E1F7CECF03
:100690008BE0F101D20101900D928A95E1F7C20140
:1006A00066960FB6F894DEBF0FBECDBFDF91CF9137
:1006B0001F910F91FF90EF90DF90CF90BF90AF9080
:1006C0009F908F907F906F905F904F903F902F9072
:1006D0000895AF92BF92CF92DF92EF92FF920F9365
:1006E0001F93CF93DF93CDB7DEB72B970FB6F89458
:1006F000DEBF0FBECDBF5C01C982DA82EB82FC8215
:100700000D831E832F83388749875A876B878E0115
:10071000085E1F4F9E012F5F3F4FDE019396AD0194
:10072000F80181918F01F90161919F0190E0861B91
:100730009109019697FD0196959587958D930417DC
:10074000150771F74BE050E060E070E0CE01839652
:100750000E9442088BE0FE01B396D50101900D92F4
:100760008A95E1F7C5012B960FB6F894DEBF0FBE50
:10077000CDBFDF91CF911F910F91FF90EF90DF9050
:10078000CF90BF90AF9008950F931F93CF93DF93B7
:10079000D62F8C01C0E0CD17B1F080E391E00E942C
:1007A000F7008C2F0E940A0184E391E00E94F70079
:1007B000F80181918F010E940A0182ED91E00E946F
:1007C000F700CF5FE8CFDF91CF911F910F91089590
:1007D000CF93DF93CDB7DEB72B970FB6F894DEBF7C
:1007E0000FBECDBF4BE050E060E070E0CE0101965F
:1007F0000E94320888E391E00E94F7006BE0CE018E
:1008000001960E94C4032B960FB6F894DEBF0FBE6C
:10081000CDBFDF91CF9108958AB1806D8AB95D9A7D
:1008200083E591E00C94F7000F935F9A5E985E9ACF
:100830005E985F98E8E220E030E040E050E060E061
:1008400070E080E090E001E00E94E3075E9A4D993D
:1008500003C0A1E00E941A085E98E150A1F70F9131
:100860000895E1E8F0E080818560808389E691E089
:100870000C94F7002F923F924F925F926F927F926B
:100880008F929F92AF92BF92CF92DF92EF92FF92A0
:100890000F931F93CF93DF93CDB7DEB767970FB654
:1008A000F894DEBF0FBECDBF98878F83ED965FAC07
:1008B000ED97EE966FACEE97EF967FACEF97C15841
:1008C000DF4F8880CF57D040C058DF4FC880C05816
:1008D000D040CF57DF4F9880C158D040CE57DF4F20
:1008E000D880C258D040CD57DF4FE880C358D040A1
:1008F000CC57DF4F2881C458D0402983CB57DF4FD6
:10090000A880C558D040CA57DF4F3881C658D0405C
:100910003987C957DF4F8881C758D0408A87C85761
:10092000DF4F9881C858D0409B87C757DF4FA881B9
:10093000C958D040AC87C657DF4FB881CA58D0409D
:10094000BD87C557DF4F2881CB58D0402E87C4576D
:10095000DF4F3881CC58D0403F87C357DF4F888165
:10096000CD58D040888BA0918400B0918500BE8383
:10097000AD830E941404298B3A8B4B8B5C8B6D8B5F
:100980007E8B482E392EA0E00E94260851F4A12C1F
:100990001982512C612C712C812CC12C912CD12CC1
:1009A000E12C9E01245D3F4F3C832B83B8E2BA8348
:1009B000FF24F39400E010E01F8AF0E0E0E0212C37
:1009C000B12C29892F213A8930234B8941235C8915
:1009D000BF895B236D896F237E897E23842D8221CD
:1009E000932D9B21A0E00E94260831F42D813E81A9
:1009F000AB81BC812D933C93AB81BC818D919D914A
:100A0000BC83AB832D813E81281B390BC901223366
:100A1000310570F05F28602A712ABF898B2ACF2A9E
:100A20009E2AD228EB28843F914010F031E0398390
:100A30002F2D302F412F5F896F2F7E2F822D9B2DE1
:100A400001E00E94E307F22E032F142F5F8BF62F95
:100A5000E72F282EB92EBA81B150BA83B111B1CF88
:100A60002981213061F4A1100AC059866A867B86EB
:100A70008C86CD869E86DF86E88AAA24A394ED968E
:100A80005FAEED97EE966FAEEE97EF967FAEEF9777
:100A9000C158DF4F8882CF57D040C058DF4FC8823F
:100AA000C058D040CF57DF4F9882C158D040CE5762
:100AB000DF4FD882C258D040CD57DF4FE882C358AD
:100AC000D0403981CC57DF4F3883C458D040CB5702
:100AD000DF4FA882C558D0408985CA57DF4F888329
:100AE000C658D0409A85C957DF4F9883C758D04021
:100AF000AB85C857DF4FA883C858D040BC85C757BF
:100B0000DF4FB883C958D0402D85C657DF4F2883A3
:100B1000CA58D0403E85C557DF4F3883CB58D040A8
:100B20008F85C457DF4F8883CC58D0409889C357EE
:100B3000DF4F9883CD58D04082E6FE01BC96AF814E
:100B4000B88501900D928A95E1F78F819885679617
:100B50000FB6F894DEBF0FBECDBFDF91CF911F91CE
:100B60000F91FF90EF90DF90CF90BF90AF909F904C
:100B70008F907F906F905F904F903F902F9008954F
:100B80009F92AF92BF92CF92DF92EF92FF920F931C
:100B90001F93CF93DF93922EA32EB42EC52ED62E65
:100BA000E72EF82E192FC8E0D0E0292D3A2D4B2D35
:100BB0005C2D6D2D7E2D8F2D912F0C2F0E94FC070B
:100BC000822F0E94E9002896C832D10571F7DF9183
:100BD000CF911F910F91FF90EF90DF90CF90BF903A
:100BE000AF909F900895CF93DF93CDB7DEB7CB59E9
:100BF000D1090FB6F894DEBF0FBECDBF90E080E8FC
:100C00000FB6F89480936100909361000FBE0E942C
:100C1000D8000E94C9000E9431040E940C040E9466
:100C200074002FEF30E782E0215030408040E1F740
:100C300000C0000080E891E00E94F7008BE0E0E057
:100C4000F1E0DE01AA57BF4F01900D928A95E1F7BE
:100C5000B12C10E0222423946C96AFAE6C976D9665
:100C60009FAE6D976E968FAE6E976F967FAE6F97B5
:100C7000A0966FAEA097A1965FAEA197A2964FAE39
:100C8000A297A3963FAEA3972DB73EB72256310940
:100C90000FB6F8943EBF0FBE2DBFADB7BEB71196CD
:100CA00082E6FE01319601900D928A95E1F7CE0120
:100CB00001960E943A046C96AFAC6C976D969FAC0F
:100CC0006D976E968FAC6E976F967FAC6F97A09670
:100CD0006FACA097A1965FACA197A2964FACA297DC
:100CE000A3963FACA3978091C0000FB6F894DEBFE7
:100CF0000FBECDBF87FD1091C600812F90E0FC0193
:100D0000E256F109E531F10508F0A6CFEC5CFF4FA2
:100D10000C94DD078DE891E00E94F70010E09CCF75
:100D20002A2D392D482D572D662D752D842D932D67
:100D30000E94C005A12C912C812C712C612C512C6E
:100D4000412C312CEBCF0E945E010E946800E6CF5F
:100D5000AF968EAD9FADAF970AC1F894CA57DF4FDB
:100D6000C880C658D040C957DF4FD880C758D04038
:100D7000C857DF4FE880C858D040C757DF4FF880CA
:100D8000C958D040C657DF4F0881CA58D040C55710
:100D9000DF4F1881CB58D040C457DF4F2881CC5843
:100DA000D040C357DF4F3881CD58D040C257DF4FB6
:100DB0004881CE58D040C157DF4F5881CF58D040DE
:100DC000C057DF4F6881C059D04080E00E941402B4
:100DD0000E94230182ED91E00E94F7002CBA7894E2
:100DE0009DCF31E0B31609F490C0B31608F486C065
:100DF00082E0B81293CFCE018F569F4F0E94D4024B
:100E00008BE0FE01EF56FF4FDE01A059BF4F01906E
:100E10000D928A95E1F789E092E00E94F7006BE07D
:100E2000CE0180599F4F0E94C4032DB73EB72B506F
:100E300031090FB6F8943EBF0FBE2DBFADB7BEB798
:100E400011968BE0FE01EA57FF4F01900D928A95B3
:100E5000E1F78DB79EB70B970FB6F8949EBF0FBE04
:100E60008DBFADB7BEB711968BE0FE01E558FF4FC1
:100E700001900D928A95E1F7E196CFACE197E29669
:100E8000DFACE297E396EFACE397E496FFACE49730
:100E9000E5960FADE597E6961FADE697E7962FAD81
:100EA000E797E8963FADE897E9964FADE997EA9660
:100EB0005FADEA97EB966FADEB97CE018F569F4FE4
:100EC0000E9469038BE0FE01EF56FF4FDE01AA5737
:100ED000BF4F01900D928A95E1F78AE192E00E945E
:100EE000F7006BE0CE018A579F4F0E94C4030FB6F4
:100EF000F894DEBF0FBECDBFB12C10CF89E991E0D1
:100F00000E94F700BB24B39409CFCE018F569F4FA8
:100F10000E94D4028BE0FE01EF56FF4FDE01A05984
:100F2000BF4F01900D928A95E1F78BE0FE01E059E9
:100F3000FF4FDE01A558BF4F01900D928A95E1F752
:100F400085ED91E00E94F7006BE0CE0180599F4F44
:100F50000E94C40386EE91E00E94F70082E0B82E62
:100F6000DDCE80EC9FEF0E94A1010E948C010E94C7
:100F70002301D4CE0E94E803D1CE991B79E004C0AE
:100F8000991F961708F0961B881F7A95C9F78095C8
:100F90000895AA1BBB1B51E107C0AA1FBB1FA617C0
:100FA000B70710F0A61BB70B881F991F5A95A9F712
:100FB00080959095BC01CD010895EE0FFF1F05901F
:100FC000F491E02D09940F93083090F0982F872F1B
:100FD000762F652F542F432F322F22270850F4CF1E
:100FE000220F331F441F551F661F771F881F991F2D
:100FF0000A95B2F70F91089597FB10F81694000820
:101000000F93083098F00850232F342F452F562F78
:10101000672F782F892F902DF4CF0594979587957A
:101020007795679557954795379527950A95AAF728
:101030000F9108950024A7FD00942A0F301D401D34
:10104000501D601D701D801D901D08950024A7FD7A
:1010500000942A173005400550056005700580058D
:1010600090050895DC01CB01FC01F999FECF06C083
:10107000F2BDE1BDF89A319600B40D924150504056
:10108000B8F70895DC01A40FB51F4150504048F057
:10109000CB01840F951F2E910E9453084150504060
:1010A000D0F70895262FF999FECF92BD81BDF89A09
:1010B000019700B4021639F01FBA20BD0FB6F8949C
:0C10C000FA9AF99A0FBE0895F894FFCF39
:1010CC0020211F1A2920201F1E2020545049432064
:1010DC00696E697469616C697A6564200D0A0063D4
:1010EC00617264206465626F756E6365640D0A00DD
:1010FC0043532000203D200053746F7265642054CC
:10110C0068726573686F6C642056616C7565733AB0
:10111C000D0A0043443430313420496E69746961DE
:10112C006C697A6564200D0A0074696D65722031F2
:10113C0020696E697469616C697A6564200D0A00B6
:10114C00686579207961276C6C200D0A0042726108
:10115C00696C6C65436164650043616C69627261C2
:10116C00746520436172642053656E736F72200D39
:10117C000A20496E73657274207768697465206300
:10118C0061726420616E6420707265737320276FC6
:10119C0027200D0A006C6F77657220626F756E6484
:1011AC00733A200D0A00496E7365727420626C618B
:1011BC00636B206361726420616E6420707265736E
:1011CC007320276F27200D0A0075707065722062DE
:1011DC006F756E64733A200D0A00746872657368DB
:0811EC006F6C643A0D0A00006B
:00000001FF
